{
  "contractName": "PositionTracking",
  "abi": [
    {
      "constant": true,
      "inputs": [],
      "name": "currentPos",
      "outputs": [
        {
          "name": "x",
          "type": "uint256"
        },
        {
          "name": "y",
          "type": "uint256"
        }
      ],
      "payable": false,
      "stateMutability": "view",
      "type": "function"
    },
    {
      "anonymous": false,
      "inputs": [
        {
          "indexed": true,
          "name": "_from",
          "type": "address"
        },
        {
          "indexed": false,
          "name": "_value_x",
          "type": "uint256"
        },
        {
          "indexed": false,
          "name": "_value_y",
          "type": "uint256"
        }
      ],
      "name": "PositionValue",
      "type": "event"
    },
    {
      "constant": false,
      "inputs": [
        {
          "name": "pos_x",
          "type": "uint256"
        },
        {
          "name": "pos_y",
          "type": "uint256"
        }
      ],
      "name": "setRandomPosition",
      "outputs": [
        {
          "name": "",
          "type": "uint256"
        }
      ],
      "payable": false,
      "stateMutability": "nonpayable",
      "type": "function"
    },
    {
      "constant": false,
      "inputs": [],
      "name": "notify",
      "outputs": [
        {
          "name": "",
          "type": "string"
        }
      ],
      "payable": false,
      "stateMutability": "nonpayable",
      "type": "function"
    }
  ],
  "bytecode": "0x6080604052604080519081016040528060008152602001600081525060008082015181600001556020820151816001015550506040805190810160405280601481526020017f706f736974696f6e20686173206368616e6765640000000000000000000000008152506003908051906020019061007d929190610090565b5034801561008a57600080fd5b50610135565b828054600181600116156101000203166002900490600052602060002090601f016020900481019282601f106100d157805160ff19168380011785556100ff565b828001600101855582156100ff579182015b828111156100fe5782518255916020019190600101906100e3565b5b50905061010c9190610110565b5090565b61013291905b8082111561012e576000816000905550600101610116565b5090565b90565b610333806101446000396000f300608060405260043610610057576000357c0100000000000000000000000000000000000000000000000000000000900463ffffffff1680633b0095bb1461005c578063899f5898146100a75780639f776b6a14610137575b600080fd5b34801561006857600080fd5b506100916004803603810190808035906020019092919080359060200190929190505050610169565b6040518082815260200191505060405180910390f35b3480156100b357600080fd5b506100bc6101f4565b6040518080602001828103825283818151815260200191508051906020019080838360005b838110156100fc5780820151818401526020810190506100e1565b50505050905090810190601f1680156101295780820380516001836020036101000a031916815260200191505b509250505060405180910390f35b34801561014357600080fd5b5061014c6102f5565b604051808381526020018281526020019250505060405180910390f35b60006040805190810160405280848152602001838152506000808201518160000155602082015181600101559050503373ffffffffffffffffffffffffffffffffffffffff167f1ee3359ebd21fb6b9bba2d08aac3c42a48251032db3d194f3f7356e1a837e3888484604051808381526020018281526020019250505060405180910390a292915050565b60603373ffffffffffffffffffffffffffffffffffffffff167f1ee3359ebd21fb6b9bba2d08aac3c42a48251032db3d194f3f7356e1a837e3886000800154600060010154604051808381526020018281526020019250505060405180910390a260038054600181600116156101000203166002900480601f0160208091040260200160405190810160405280929190818152602001828054600181600116156101000203166002900480156102eb5780601f106102c0576101008083540402835291602001916102eb565b820191906000526020600020905b8154815290600101906020018083116102ce57829003601f168201915b5050505050905090565b600080600001549080600101549050825600a165627a7a723058202a6957a0f809807b94f47f0c3d20d95fc8bff0b7e36d9042d97960a2cc6f6d7f0029",
  "source": "pragma solidity ^0.4.23;\n//pragma experimental ABIEncoderV2;\n\ncontract PositionTracking {\n\n    struct position {\n        uint x;\n        uint y;\n    }\n\n    event PositionValue(address indexed _from, uint _value_x, uint _value_y);\n\n    position public currentPos = position ({x:0, y:0});\n\n    mapping (address => position) route;\n\n    function setRandomPosition (uint pos_x, uint pos_y) public returns (uint) {\n        currentPos = position ({x:pos_x, y:pos_y});\n        emit PositionValue(msg.sender, pos_x, pos_y);\n    }\n\n    string message = \"position has changed\";\n\n    function notify () public returns (string) {\n        emit PositionValue(msg.sender, currentPos.x, currentPos.y);\n        return message;\n    }\n}\n",
  "sourcePath": "/home/telekom/eth_projects/poa_docker/tracking_chain_docker/tracking_chain/contracts/Tracking.sol",
  "compiler": {
    "name": "solc",
    "version": "0.4.24+commit.e67f0147.Emscripten.clang"
  },
  "schemaVersion": "2.0.1",
  "updatedAt": "2018-11-29T12:34:30.084Z"
}