{
  "contractName": "PositionTracking",
  "abi": [
    {
      "constant": false,
      "inputs": [
        {
          "name": "pos_x",
          "type": "uint256"
        },
        {
          "name": "pos_y",
          "type": "uint256"
        }
      ],
      "name": "setRandomPosition",
      "outputs": [
        {
          "name": "",
          "type": "uint256"
        }
      ],
      "payable": false,
      "stateMutability": "nonpayable",
      "type": "function"
    }
  ],
  "bytecode": "0x60806040526040805190810160405280600081526020016000815250600080820151816000015560208201518160010155505034801561003e57600080fd5b5060ed8061004d6000396000f300608060405260043610603f576000357c0100000000000000000000000000000000000000000000000000000000900463ffffffff1680633b0095bb146044575b600080fd5b348015604f57600080fd5b5060766004803603810190808035906020019092919080359060200190929190505050608c565b6040518082815260200191505060405180910390f35b6000604080519081016040528084815260200183815250600080820151816000015560208201518160010155905050929150505600a165627a7a72305820685f9d61f4df998047db148f7844e70fb6cf76e5f79383ad371b5603942375a40029",
  "source": "pragma solidity ^0.4.17;\n//pragma experimental ABIEncoderV2;\n\ncontract PositionTracking {\n    struct position {\n        uint x;\n        uint y;\n    }\n\n    position currentPos = position ({x:0, y:0});\n\n    mapping (address => position) route;\n\n    function setRandomPosition (uint pos_x, uint pos_y) public returns (uint) {\n        currentPos = position ({x:pos_x, y:pos_y});\n    }\n}",
  "sourcePath": "/home/telekom/eth_projects/tracking_chain/contracts/Tracking.sol",
  "compiler": {
    "name": "solc",
    "version": "0.4.24+commit.e67f0147.Emscripten.clang"
  },
  "schemaVersion": "2.0.1",
  "updatedAt": "2018-09-10T11:02:34.426Z"
}