{
  "contractName": "PositionTracking",
  "abi": [
    {
      "constant": true,
      "inputs": [],
      "name": "currentPos",
      "outputs": [
        {
          "name": "x",
          "type": "uint256"
        },
        {
          "name": "y",
          "type": "uint256"
        }
      ],
      "payable": false,
      "stateMutability": "view",
      "type": "function"
    },
    {
      "anonymous": false,
      "inputs": [
        {
          "indexed": true,
          "name": "_from",
          "type": "address"
        },
        {
          "indexed": false,
          "name": "_value_x",
          "type": "uint256"
        },
        {
          "indexed": false,
          "name": "_value_y",
          "type": "uint256"
        }
      ],
      "name": "PositionValue",
      "type": "event"
    },
    {
      "constant": false,
      "inputs": [
        {
          "name": "pos_x",
          "type": "uint256"
        },
        {
          "name": "pos_y",
          "type": "uint256"
        }
      ],
      "name": "setRandomPosition",
      "outputs": [
        {
          "name": "",
          "type": "uint256"
        }
      ],
      "payable": false,
      "stateMutability": "nonpayable",
      "type": "function"
    }
  ],
  "bytecode": "0x60806040526040805190810160405280600081526020016000815250600080820151816000015560208201518160010155505034801561003e57600080fd5b506101978061004e6000396000f30060806040526004361061004c576000357c0100000000000000000000000000000000000000000000000000000000900463ffffffff1680633b0095bb146100515780639f776b6a1461009c575b600080fd5b34801561005d57600080fd5b5061008660048036038101908080359060200190929190803590602001909291905050506100ce565b6040518082815260200191505060405180910390f35b3480156100a857600080fd5b506100b1610159565b604051808381526020018281526020019250505060405180910390f35b60006040805190810160405280848152602001838152506000808201518160000155602082015181600101559050503373ffffffffffffffffffffffffffffffffffffffff167f1ee3359ebd21fb6b9bba2d08aac3c42a48251032db3d194f3f7356e1a837e3888484604051808381526020018281526020019250505060405180910390a292915050565b600080600001549080600101549050825600a165627a7a723058203d138cc6198a1b1e1a381cc8c79e20daff89c9c73b5d5c1825c2500cfb0c61960029",
  "source": "pragma solidity ^0.4.17;\n//pragma experimental ABIEncoderV2;\n\ncontract PositionTracking {\n\n    struct position {\n        uint x;\n        uint y;\n    }\n\n    event PositionValue(address indexed _from, uint _value_x, uint _value_y);\n\n    position public currentPos = position ({x:0, y:0});\n\n    mapping (address => position) route;\n\n    function setRandomPosition (uint pos_x, uint pos_y) public returns (uint) {\n        currentPos = position ({x:pos_x, y:pos_y});\n        emit PositionValue(msg.sender, pos_x, pos_y);\n    }\n}\n",
  "sourcePath": "/home/telekom/eth_projects/tracking_chain/contracts/Tracking.sol",
  "compiler": {
    "name": "solc",
    "version": "0.4.24+commit.e67f0147.Emscripten.clang"
  },
  "schemaVersion": "2.0.1",
  "updatedAt": "2018-10-04T12:21:20.798Z"
}